:020000020000FC
:0200000055C0E9
:1000AC000FEF0DBF0AE00EBF0FEF04B900E005B96A
:1000BC0000E00AB90FEF0BB900E905B909B10073FB
:1000CC00003211F405D0FACF0031C1F714D0F6CFBD
:1000DC000F931F930FB70F9300E005B914E61ED0D2
:1000EC0000E105B914E61AD000E905B90F910FBF6C
:1000FC001F910F9108950F931F930FB70F9300E06B
:10010C0005B914E60BD000E805B914E607D000E9F0
:10011C0005B90F910FBF1F910F9108951F932F9346
:10012C003F9330EE2DEE2A95F1F73A95D9F71A95C3
:0A013C00C1F73F912F911F91089524
:00000001FF
