:100000000C9456000C9460000C9460000C946000FA
:100010000C9460000C9460000C9460000C946000E0
:100020000C9460000C9460000C9460000C946000D0
:100030000C9460000C9460000C9460000C946000C0
:100040000C9460000C9460000C9460000C946000B0
:100050000C9460000C9460000C9460000C946000A0
:100060000C9460000C9460000C9460000C94600090
:100070000C9460000C9460000C9460000C94600080
:100080000C9460000C9460000C9460000C94600070
:100090000C9460000C9460000C9460000C94600060
:1000A0000C9460000C9460000C94600011241FBE3E
:1000B000CFEFDAE0DEBFCDBF0E9462000C94B90042
:1000C0000C9400001AB88FEF8BB980EF84B985B912
:1000D00030E940E850E189B1282F2071982F9073C2
:1000E000B1F415B82FEF83ED90E32150804090409C
:1000F000E1F700C0000045B92FEF83ED90E32150F8
:1001000080409040E1F700C0000035B9E4CF2111F4
:1001100016C015B82FEF83ED90E32150804090403A
:10012000E1F700C0000055B92FEF83ED90E32150B7
:1001300080409040E1F700C0000035B9CCCF85FD8C
:1001400016C015B82FEF83ED90E32150804090400A
:10015000E1F700C0000045B92FEF83ED90E3215097
:1001600080409040E1F700C0000035B9B4CF35B908
:06017000B2CFF894FFCFAE
:00000001FF
